:020000040800F2
:10000000D80D0020A90100087F3C00084D310008F0
:100010007D3C00083D0B0008A14E000800000000D8
:10002000000000000000000000000000F73D000894
:100030000B0F000800000000A13C00084D40000824
:10004000C3010008C3010008C3010008C301000880
:10005000C3010008C30100080D0F0008130F0008BA
:10006000190F00081F0F0008250F0008C301000822
:10007000C3010008C3010008C3010008C301000850
:10008000C3010008C3010008C3010008000000000C
:10009000000000000000000000000000C301000894
:1000A000C301000841410008C3010008C301000862
:1000B000C3010008C3010008C3010008C301000810
:1000C000C3010008C3010008C3010008C301000800
:1000D000C3010008C30100085948000800000000DF
:1000E000C3010008C3010008C301000800000000AC
:1000F000000000000000000000000000C301000834
:1001000000000000C30100084D410008C3010008C1
:1001100000000000000000000000000000000000DF
:10012000410C0008C3010008C3010008C301000816
:10013000C3010008000000000000000000000000F3
:10014000000000000000000000000000C3010008E3
:10015000C3010008C3010008C3010008C30100086F
:10016000C3010008C30100080000000000000000F7
:10017000000000000000000000000000000000007F
:1001800000000000C30100080000000000000000A3
:10019000C3010008DFF80CD000F0DCFB004800478A
:1001A00017690008D80D0020064880470648004718
:1001B000FEE7FEE7FEE7FEE7FEE7FEE7FEE7FEE717
:1001C000FEE7FEE7ED400008950100082DE9F05F2D
:1001D0000546002092469B468846064681464024B6
:1001E0001BE0284641464746224600F0E0FA5346C7
:1001F0005A46C01A914110D311461846224600F0C3
:10020000C7FA2D1A67EB01084F462246012000214C
:1002100000F0BEFA17EB00094E41201EA4F10104C4
:10022000DFDC484631462A464346BDE8F09FD2B25D
:1002300001E000F8012B491EFBD270470022F6E7CF
:1002400010B513460A4604461946FFF7F0FF20464C
:1002500010BD421E12F8013F002BFBD111F8013BEB
:1002600002F8013B002BF9D1704730B505462A460C
:100270000B4612F8010B13F8014B08B1A042F8D05D
:100280001CB1002802D06D1CF1E7284630BD421C8D
:1002900010F8011B0029FBD1801A704710B500220D
:1002A00000E0521C835C8C5CA34201D1002BF8D18E
:1002B000D8B2E1B2401A10BD10B5044600E0401CAF
:1002C0000378002BFBD100E0401C521E04D311F830
:1002D000013B0370002BF7D100210170204610BDB7
:1002E00070B50F4D00B92868002412E00A4602E0FC
:1002F0009E4203D0521C1378002BF9D1DAB222436C
:1003000005D02BB124B1002100F8011B04E0044604
:10031000401C0678002EE9D12860204670BD000000
:10032000A000002010B50346002004E0401C491C3A
:1003300003F8014B521E012A02D90C78002CF5D18A
:1003400022B100221A7001E0401C491C0A78002AE0
:10035000FAD110BD2DE9F04791460F46804604467C
:10036000002614F8015B2DB100F044FA0068405DEE
:10037000C007F6D12B2D02D02D2D18D0641E4A4671
:100380003946204600F03AFA27B13968A14201D136
:10039000C7F8008071054FF002040BD540420028D9
:1003A00003DD04F09FFF0460A007BDE8F08746F47A
:1003B0008066E4E70028F8DA04F094FF04606FF048
:1003C0000040F2E770B5064604F08CFF046805466D
:1003D0000A2200213046FFF7BDFF2C6070BD2DE9D9
:1003E000FE4F804681EA0300C00F0C46009021F0CA
:1003F000004123F00045B8EB0200A94105D2404678
:10040000214690461C460B46024623F0004010430E
:1004100047D0270DC7F30A00C3F30A510290401AD0
:10042000019040286BDAC3F3130040F4801B00985E
:10043000924620B10023D2EB030A63EB0B0B019829
:100440005946C0F14002504600F0A2F906460D465A
:1004500050465946019A00F0BAF910EB0800614184
:10046000002487EA115284EAE7731A4340D0009AC5
:1004700062B3019A012A4FEA075215DC001B61EBB7
:1004800002014FF0004202EA0752CDE90042001C8F
:1004900041F5801132462B4600F00EFA03B0BDE85C
:1004A000F08F40462146F9E7001B61EB0201001C7A
:1004B00041F5801300185B412018A2F5001747EBA7
:1004C000030140EAD570B6196D4111E06D084FEA9D
:1004D000360645EAC0754FEA0752001B61EB020180
:1004E000001C41F5801149084FEA300000195141C4
:1004F00032462B4603B0BDE8F04F00F0CEB900986D
:10050000012240000023D0EB020263EBE07300986D
:1005100021464FEAE074B8EB000061EB0401E9E723
:1005200083F000435BE781F0004158E72DE9FE4F7F
:1005300081EA030404F0004421F0004100944FF0EC
:10054000000B23F0004350EA01045ED052EA03049A
:100550005BD0C3F30A54C1F30A552C44A4F2F3341C
:100560000194A0FB0254C1F3130141F48011C3F3C1
:10057000130343F4801301FB024400FB034E840A7F
:10058000970A44EA815447EA8357A4FB0768029517
:100590008D0A05FB07854FEA932C04FB0C542705B5
:1005A000029D4FEA065847EA1637B5EB08056EEB91
:1005B000070C870E920E47EA811742EA8312A7FBC7
:1005C0000201B6EB0B0164EB00042B0D43EA0C3384
:1005D0005E1844EB1C50DA465146E7FB0201C5F3B6
:1005E00013044FEA0B3343EA14534FEA0432019CDD
:1005F00043EA0603A4F10C040294009CCDE900B484
:1006000000F05AF903B0BDE8F08F00200146F9E789
:100610002DE9F04D81EA030404F0004B21F0004580
:1006200014464FF0000A23F0004150EA050220D0A2
:1006300054EA01021DD0C5F30A570246C5F313035D
:10064000C1F31300C1F30A5640F4801543F480133C
:10065000A7EB0608101BD64608F2FD3873EB050021
:1006600002D308F1010801E092185B41B8F1000FD4
:1006700003DA00200146BDE8F08D00204FF4801120
:10068000064684460EE0171B73EB050705D3121BC5
:1006900063EB050306434CEA010C49084FEA3000BE
:1006A00092185B4150EA0107EDD152EA030012D0E3
:1006B00082EA040083EA0501084305D0101BAB4120
:1006C00006D20122002306E000224FF0004302E0A0
:1006D0006FF0010253101AEB06004CEB085110EBBF
:1006E0000A0041EB0B01BDE8F04D00F0D6B80EB5A5
:1006F00040F2334102910021CDE900110A460B4638
:1007000000F0DAF803B000BDC1F30A5210B5C1F32E
:10071000130140F2FF3341F480119A4201DA0020C4
:1007200010BD40F233439A42A2F2334203DC5242FC
:1007300000F03DF810BD904010BD00F0004230F0D8
:1007400000400AD0C10D01F56071C0F3160042EA05
:100750000151C2084007114370470020014670470D
:1007600030B5041E71F1000404DB4FF00044404238
:1007700064EB0101141E73F1000405DB1C464FF00D
:100780000043524263EB04038B4208BF824230BDF8
:10079000202A04DB203A00FA02F100207047914041
:1007A000C2F1200320FA03F3194390407047202A36
:1007B00004DB203A21FA02F00021704721FA02F30B
:1007C000D040C2F120029140084319467047202AC8
:1007D00006DBCB17203A41FA02F043EAE07306E069
:1007E00041FA02F3D040C2F1200291400843194679
:1007F0007047000000487047806F00082DE9F05FE7
:1008000082460078002715468B460AF10104B94656
:10081000302801D09DB113E014F8010B012778288E
:1008200003D0582801D045B10AE00DB1102D07D1F1
:100830000027102514F8010B02E0082500E00A2526
:100840000026B0460EE005FB080005FB06F1012777
:1008500001EB10461FFA80F8B6F5803F00D3B94689
:1008600014F8010B294600F087F80028EBDABBF1F9
:10087000000F05D00FB1641E00E05446CBF80040D5
:10088000B9F1000F06D004F02DFD02210160C81E51
:10089000BDE8F09F48EA0640FAE710B5141E73F170
:1008A000000408DA401C41F1000192185B411A4330
:1008B00001D120F0010010BD2DE9F04D92469B467C
:1008C00011B1B1FA81F202E0B0FA80F22032904622
:1008D000FFF75EFF04460F4640EA0A0041EA0B01BB
:1008E00053465A46084313D0114653EA010019D023
:1008F000C8F140025046FFF75AFF05460E465046E3
:1009000059464246FFF744FF084305D0012004E062
:1009100020463946BDE8F08D0020054346EAE076E2
:100920002C4337430A986305E40AA0EB0800002231
:10093000FD0A44EA47540A3002D500200146E9E79F
:10094000010510196941DDE9084500196941BDE853
:10095000F04DA2E7064C074D06E0E06840F00103C9
:1009600094E8070098471034AC42F6D3FFF716FC22
:10097000C86F0008E86F00083A2800D2303820F02D
:100980002002412A01D3A2F13700884201D34FF05F
:10099000FF30704710B50146806B026C12F0500FAB
:1009A00005D0806BC26CBDE8104008461047016C52
:1009B00041F40071016401688A6812F0405F17D148
:1009C0008269AAB9CA6A12F4700F02D08A68520505
:1009D0000ED44A6822F020024A60016C21F4807132
:1009E0000164016CC90403D4016C41F0010101648C
:1009F00000F0B4FB10BD10B5806B40210164416C68
:100A000041F00401416400F0ABFB10BD10B5806BF8
:100A100000F0A5FB10BD0000454910B54A6822F45E
:100A200040324A604A6843681A434A6001684A682B
:100A300022F480724A6001684A68036942EA03222C
:100A40004A6001684A6822F040724A6001684A6858
:100A500083681A434A6001688A6822F400628A60E7
:100A600001688A68C3681A438A60816A6FF070629D
:100A7000D14201688A6822F070628A6001688A68DF
:100A80000CD0836A1A438A6001688A6822F0405257
:100A90008A6001688A68C36A1A4301E022F0405202
:100AA0008A6001688A6822F002028A6001688A68A6
:100AB000836942EA43028A60016A002901684A6840
:100AC0000FD042F400624A6001684A6822F4604232
:100AD0004A6001684A68174C436A04EB43331A437F
:100AE00001E022F400624A600168CA6A22F47002DE
:100AF000CA620168CA6A838B0F4C04EB03531A4322
:100B0000CA6201688A6822F400728A6001688A6891
:100B1000036B42EA43228A6001688A6822F4806299
:100B20008A6001688A68406942EA8020886010BD56
:100B30000023014000E0FFFF0000F0FFFEE700009F
:100B4000064A516A30B1012803D1002901D0491E5B
:100B5000516270474729FCD8491CF9E71000002072
:100B600010B5064CE079002806D0207A012803D180
:100B700004F006FA0020E07110BD00001000002013
:100B800003480079012801D103F0B8B9704700008B
:100B9000100000200448017A044819B10022012104
:100BA00000F047BE0122FAE71000002000040240D6
:100BB00010B50C4CA079012812D1207A01280FD150
:100BC00009A10C4804F07AFB2082228A09490A48CC
:100BD00002F09CFA0228F8D004F08CFA0020A071F0
:100BE00010BD0000100000204556454E54205344CF
:100BF0000A0D0000A80000206809002008484FF4F2
:100C00002F7340F25232C189994201D1C28170479B
:100C1000914203D140F2E731C1817047C3817047EF
:100C2000100000200548417B21B1012904D000219A
:100C3000417370470121FBE70221F9E71000002012
:100C4000014800F097BB0000280700200168182326
:100C5000CAB2103AB2FBF3F2054B6FF30901032A53
:100C60009B5CC36500D9091D81650846704700007B
:100C7000406E000810B5014600208B698A6A4FF06B
:100C8000C07453B1B3F5005F15D072B1012A0CD016
:100C9000022A0AD0032A09D104E01AB1012A06D097
:100CA000022A03D1C96AC90100D5012010BDC96A51
:100CB000A142FAD010BD002AF7D0012AF2D0022AB0
:100CC000F3D0032AF3D010BD30B50468256825F4AD
:100CD00080252560046863608368402B036803D027
:100CE00099600068C26030BD9A600068C16030BD24
:100CF00070B5114D002422460421284600F099FDCC
:100D00000E49052004F0A2FE01220421284600F02D
:100D100090FD0A49052004F099FE0221284600F0C2
:100D200083FD012800D10124054884800349372030
:100D300004F08CFE204670BD00040240B408002080
:100D4000900000202DE9F04100252C465FF00107BE
:100D5000FFF7CEFF18B107FA04F62E43B5B2641CB4
:100D6000A4B2082CF4D32846BDE8F08130B52DEDAF
:100D7000028B83B09FED2A8A00F05AF8012810D127
:100D8000CC2000F0B3F8442000F0B0F8002441F685
:100D90004C552449284604F059FE641CA4B2642C26
:100DA000F7D300F045F801282CD1CC2000F09EF8B4
:100DB000BE2000F09BF800244FEA0D05FFF7C2FFAC
:100DC00025F81400641CA4B2022CF7D3164ABDF80F
:100DD00000001080BDF802105180C1F3C012090755
:100DE000090D9FED120AADF80420ADF80210084479
:100DF00082B1A0F6FF7000EE900AF8EEE00A00BFA4
:100E000020EE808A00F014F803B0B0EE480ABDEC82
:100E1000028B30BD00EE900AF8EE600AF0E70000A9
:100E200000000000B4080020900000200000803D79
:100E300070B5164D002422460421284600F0F9FC26
:100E400013494FF4F07004F001FE012204212846FA
:100E500000F0EFFC0E49462004F0F8FD0221284680
:100E600000F0E2FC00B9012409494FF4CD7004F010
:100E7000EDFD0221284600F0D7FC012800D1641CBA
:100E8000022C01D0002070BD012070BD0004024082
:100E9000B408002010B5134C00284FF000024FF0AA
:100EA0000401204610D000F0C4FC0F490A2004F0D1
:100EB000CDFD01220421204600F0BBFC0A4941205F
:100EC000BDE8104004F0C2BD00F0B3FC064941206B
:100ED00004F0BCFD01220421204600F0AAFC0249D6
:100EE0000A20EDE700040240B408002070B5064671
:100EF0005FF0000426FA04F505F00100FFF7CAFFD1
:100F0000641CA4B2082CF5D370BD7047012000F01A
:100F1000BBBB022000F0B8BB042000F0B5BB08202A
:100F200000F0B2BB102000F0AFBB70477CB50C46A0
:100F300005466A4601A90AA004F01CFF00280DD14D
:100F4000009841694089891E4143480828600098FB
:100F50000199408948434008206000207CBD000082
:100F6000303A0000002200F001B8000030B50E4B0E
:100F7000054601205C7A002C14D1587A1C54587A0A
:100F800003EB800045605D7A03F108002A54587A2B
:100F9000421C5A72303008703A2048702F208870F6
:100FA000CC70002030BD0000C809002010B501221F
:100FB0000FA1104804F06CFF040011D113220EA100
:100FC000114804F091FF40B91049081FFFF7AEFF28
:100FD00018B90E4901202C3908720B4804F0B6FEEE
:100FE000012203A1002004F053FF204610BD0000A1
:100FF000303A000080020020303A636F6E66696705
:101000002E74787400000000B00400203C00002022
:1010100078B50024009490F83C20012A19D00122D0
:1010200080F83C200A6807230568092A13D9EE686E
:101030000A3A02EB420293409E43EE600B788A68C4
:101040000A3B03EB43039A400368DD682A43DA60F6
:1010500010E0022078BD2E6902EB420293409E43CD
:101060002E610B788A6803EB43039A4003681D697D
:101070002A431A614A681F23072A13D205686E6B38
:10108000521E02EB820293409E436E630B790A88E4
:101090005B1E92B203EB83039A4003685D6B2A43A5
:1010A0005A6327E005680D2A12D22E6BD21F02EB7D
:1010B000820293409E432E630B790A88DB1F92B213
:1010C00003EB83039A4003681D6B2A431A6311E004
:1010D000EE6A0D3A02EB820293409E43EE620B7978
:1010E0000A880D3B92B203EB83039A400368DD6AE2
:1010F0002A43DA62164B0568144A9D4206D10D68F0
:10110000122D03D1556845F48005556005689D4250
:1011100018D10B68102B01D0112B13D1536843F455
:1011200000035360096810290CD10A490A4A09686A
:10113000B1FBF2F101EB8101490000E0491E009191
:101140000029FBD180F83C40002078BD00230140FD
:10115000002001408C00002040420F007047704783
:10116000704770B504004FF0000503D0206C0026D6
:1011700010B107E0012070BD666484F83C60204631
:1011800000F01AF8206CC00610D4206C20F48850AF
:1011900040F0020020642046FFF73EFC6664206CAD
:1011A00020F0020040F00100206400E0012584F8F6
:1011B0003C60284670BD000070B586B0064614211C
:1011C0006846FFF73BF81D493068884234D11C4817
:1011D0000025016841F480710160006800F48070AE
:1011E000059017481438016841F00101016000685A
:1011F000694600F001000590012000900320CDE930
:101200000105104800F04CFA104C0F48C4E90005E5
:101210000015A560C4E90350800060618000A061F2
:101220008011C4E907052046656200F073F908B132
:10123000FFF77BFEB463A66306B070BD00200140DB
:101240004438024000000240106402402807002099
:10125000F8B50E4600210446009190F83C000128A4
:1012600007D0012084F83C0020688368DB0702D0A7
:1012700011E00220F8BD836843F0010383602D482C
:101280002D4B0068B0FBF3F000EB400000E0401E87
:1012900000900028FBD120688368DB0748D0236CCE
:1012A00040F20165AB4343F480732364406840051A
:1012B00005D5206C20F4005040F480502064206C50
:1012C000C00404D5606C20F00600606400E0616436
:1012D00084F83C10A16B1A48184DC863A16B1948DB
:1012E0000864A16B1848C86421686FF02200086088
:1012F0002068416841F0806141602068816841F464
:10130000807181602168134632464C31A06B00F039
:101310006BF96868C006206802D00C49884207D182
:10132000816811F0405F03D1816841F080418160A4
:101330000020F8BD8C00002040420F000023014037
:10134000950900080D0A0008F7090008002001406F
:1013500090F83510022903D08021416501207047A3
:10136000052180F835100068016821F00101016055
:10137000002070472DE9F84304464FF00009CDF8EE
:10138000009063484FF41651A56D0068B0FBF1F76B
:101390002E6894F85C10082000FA01F131420FD059
:1013A00021680A6852070BD50A6822F004020A6015
:1013B00094F85C108840A860606D40F001006065A2
:1013C00094F85C104FF0010808FA01F0304208D0A0
:1013D00021684969090604D5A860606D40F00200E3
:1013E000606594F85C1004208840304208D0216881
:1013F0000968890704D5A860606D40F00400606545
:1014000094F85C1010208840304218D02168096898
:10141000090714D5A86020680168490304D500684D
:10142000000308D5A16C07E00168C90503D4016871
:1014300021F008010160216C09B12046884794F829
:101440005C1020208840304231D021680968C906EC
:101450002DD5A86094F8350005282068016806D0CD
:10146000490347D5006800031DD4616C1CE021F0DE
:10147000160101602068416921F080014161206C02
:1014800008B9A06C20B12068016821F00801016052
:1014900094F85C103F208840A86084F8349084F869
:1014A0003580216D1FE0E16B09B120468847606DF2
:1014B00000282BD0606DC00714D0052084F83500BB
:1014C0002068016821F0010101600098401C009033
:1014D000B84203D820680068C007F6D184F8349079
:1014E00084F83580E16C002910D001B02046BDE8B9
:1014F000F04308470168C905D5D4016821F01001FF
:10150000016084F8349084F83580CCE7BDE8F88336
:101510008C0000202DE9F041044600F08FF90646CA
:101520005CB1002584F83450022084F8350020682E
:10153000016821F0010101600DE00120BDE8F081AA
:1015400000F07CF9801B052805D920206065032068
:1015500084F83500F2E720680068C007F0D12268FF
:10156000116820480140D4E901031843D4E9033647
:101570003343184363691843A3691843E369184365
:10158000236A18430843616A042903D1D4E90B1381
:1015900019430843106020684069666A20F007011B
:1015A00030460E43012704280CD1A06A0643E06AA6
:1015B00040B12046FFF75EFB20B14020606584F813
:1015C0003570BAE7206846612046FFF73FFB94F884
:1015D0005C203F2191408160656584F83570002072
:1015E000ACE700003F8010F02DE9F0410446866D25
:1015F00090F83400002501280DD0012084F8340033
:1016000094F835700020012F07D084F834000225AB
:101610002846BDE8F0810220FBE7022784F83570F8
:1016200060652046FFF750FB94F85C103F2088402F
:10163000B0602068016841F01601016020684169CE
:1016400041F080014161206C20B12068016841F0C7
:10165000080101602068016841F001010160D7E7DD
:1016600070B5044600F0EAF80546601C02D0044854
:101670000078044400F0E2F8401BA042FAD370BDA9
:101680008000002002F0A6BC044910B50A6802429E
:1016900002D00860FFF7F6FF10BD0000143C0140C7
:1016A0002DE9F84FDFF860B100224FF001084FF04C
:1016B000030A4FF00F090BF1040E00BF0B6808FA84
:1016C00002F42340A3426ED14D68022D01D0122DA9
:1016D0000ED1D50800EB850CDCF820505607F70E2C
:1016E00009FA07F6B5430E69BE402E43CCF82060D8
:1016F000066855000F790AFA05FC07F0030726EA89
:101700000C06AF40374307604E68012E05D0022E0D
:1017100003D0112E01D0122E0ED18668CF6826EA92
:101720000C06AF40374387604668A6430C79C4F384
:101730000014944034434460C6688C6826EA0C0662
:10174000AC403443C4604C68E40056D52F4C256847
:1017500045F480452560246822F0030504F48044A4
:1017600000942B4C2E19D6F8084895072F0F09FA2C
:1017700007F5AC43274DA84201D1002515E0264DC1
:10178000A84201D1012510E0244DA84201D1022533
:101790000BE0234DA84201D1032506E0214DA842CC
:1017A00002D1042501E028E00725BD402543C6F805
:1017B0000858DBF800405D464E689C43F60300D5B0
:1017C0001C432C60DEF8004075464E689C43B6030F
:1017D00000D51C432C600C4D08352C684E689C438A
:1017E000F60200D51C432C60074D0C352C684E6862
:1017F0009C43B60200D51C432C60521C102AFFF4F7
:101800005DAFBDE8F88F0000003C01404438024065
:101810000030014000000240000402400008024085
:10182000000C0240001002400069084000D0012076
:1018300070470AB1816170470904FBE7014880687D
:10184000704700008000002002488168027811443F
:1018500081607047800000200B4810B5016841F49A
:1018600000710160016841F480610160016841F428
:1018700080710160032000F077F8002000F006F886
:1018800000F024F8002010BD003C024070B50D4D62
:1018900004464FF47A712878B1FBF0F00A490968E0
:1018A000B1FBF0F000F09CFE48B9102C07D20022EA
:1018B0002146501E00F038F800206C6070BD0120F9
:1018C00070BD0000800000208C0000200A4808B590
:1018D000016841F480410160006800F4804000909C
:1018E0000548001F016841F080510160006800F068
:1018F0008050009008BD00004438024000F01F02F4
:10190000012191404009800000F1E020C0F88011E1
:10191000704700F01F02012191404009800000F152
:10192000E020C0F800117047F0B40E4B1B680C4665
:10193000C3F30223C3F10705042D00D90425191DA3
:10194000072901D2002300E0DB1E012606FA05F17B
:10195000491E214099409E40761E16403143F0BCFE
:1019600002F08EB90CED00E0064900F007020868AD
:101970004FF6FF03184040EA0220034A1043086074
:10198000704700000CED00E00000FA052DE9F84377
:10199000044600684FF00109C1074FF0000601D16D
:1019A000400727D5DFF81C81C8F86860FFF746FFBD
:1019B0000746454D05E000BFFFF740FFC01B02286A
:1019C00057D828680001F7D460688101207A41EA7D
:1019D00000703D4984310860C8F86890FFF72EFF19
:1019E000074604E0FFF72AFFC01B022841D82868F9
:1019F0000001F7D52078800752D533484030016880
:101A000041F0805101600068304D00F0805000903E
:101A1000286840F480702860FFF710FF074604E054
:101A2000FFF70CFFC01B022823D82868C005F7D594
:101A3000254D7035286810F4407020D0A18901F43C
:101A4000407181421BD0286820F440712048C0F8C2
:101A50000090066029602868C00710D0FFF7EEFEEE
:101A6000064641F2883707E0FFF7E8FE801BB842E0
:101A700002D90320BDE8F88328688007F4D5E1681F
:101A80001148C1F301220830032A12D0016821F461
:101A9000F81101602868A189C1F30B01084328608F
:101AA0002078000703D50B49207CC1F8E001002015
:101AB000E0E70268084B22F4F81219400A4302607A
:101AC000E8E7000000004742003802400070004094
:101AD000400E474200104742FFFCFF0F2DE9F04740
:101AE0000E46050065D0DFF81481D8F80000F7B283
:101AF00000F00F00B04207D288F80070D8F800005C
:101B000000F00F00B04254D128683D4C810712D537
:101B1000400703D5206840F4E05020602878000793
:101B200003D5206840F4604020602068A96820F058
:101B3000F000084320602878C0072DD0304968683D
:101B40000839012812D0022813D0032811D00968BF
:101B5000890700292DDA216821F003010143216062
:101B6000FFF76CFE814641F2883A0EE0096889036E
:101B7000EFE709688901ECE7FFF760FEA0EB0901D8
:101B8000514502D90320BDE8F0872068696800F05C
:101B90000C00B0EB810FEFD1D8F80010404601F0F7
:101BA0000F01B14207D90770006800F00F00B04282
:101BB00001D00120E7E72878400705D52068E968CB
:101BC00020F4E050084320602878000706D52068FC
:101BD000296920F4604040EAC100206000F036F836
:101BE0002168084AC1F30311515CC84006490860E6
:101BF0000020FFF74BFE0020C5E70000003C02403C
:101C000008380240486E00088C000020044805494E
:101C100000680968044AC1F38221515CC8407047DA
:101C20008C00002008380240586E0008044805491E
:101C300000680968044AC1F34231515CC8407047EA
:101C40008C00002008380240586E0008154810B576
:101C5000006810F00C02144813D01449042A0FD065
:101C6000082A0ED10F4C241F2268236802F03F027D
:101C70005B0207D52068C0F38810A0FB010106E0D5
:101C8000084610BD2168C1F38811A1FB00010023A3
:101C9000FEF79CFA2168C1F30141491C4900B0FBE1
:101CA000F1F010BD083802400024F40040787D01B6
:101CB0002DE9F84F050076D02878DFF8F8B2BE4C51
:101CC000C00749D0DBF800105846C1F38101012953
:101CD00008D00068C0F3810002280AD1201D0068E6
:101CE000400206D52068800336D568680028E2D017
:101CF00032E06868B0F5803F10D0B0F5A02F2068C2
:101D000010D020F480302060206820F480202060F3
:101D10006868A0B1FFF792FD06460CE0206840F429
:101D20008030F4E740F480202060F7E7FFF786FD7D
:101D3000801B642873D820688003F7D50CE0FFF778
:101D40007DFD064605E000BFFFF778FD801B642897
:101D5000F0D820688003F7D42878DFF86082800705
:101D60004FF000093ED5DBF80010584611F00C0F7B
:101D700009D00068C0F3810002280BD18D48001FF4
:101D80000068400206D42068800715D5E86801285D
:101D900009D111E0E868B8B10120C8F80000FFF7E8
:101DA0004DFD064605E002E1FFF748FD801B0228D5
:101DB000C0D820688007F7D52068296920F0F8008E
:101DC00040EAC10020600DE0C8F80090FFF736FD42
:101DD000064604E0FFF732FD801B02281FD820686A
:101DE0008007F7D42878000722D5724E74486969B5
:101DF0006C3671B101210160FFF720FD074604E058
:101E0000FFF71CFDC01B022809D830688007F7D5F2
:101E10000EE0C0F80090FFF711FD074605E083E0F3
:101E2000FFF70CFDC01B02287ED830688007F7D46E
:101E30002878400768D5DFF87CA100270AF1380A26
:101E4000DAF80000C0000BD4DAF8001041F080513D
:101E5000CAF80010DAF80000012700F08050009066
:101E6000584E3068C00510D4306840F4807030603F
:101E7000FFF7E4FC009005E0FFF7E0FC0099401A52
:101E8000022851D83068C005F6D54A4EA868683691
:101E900001280FD00528306810D020F001003060F4
:101EA000306820F004003060A868B8B1FFF7C6FCC5
:101EB00000900FE0306840F00100F4E740F00400CB
:101EC0003060F7E7FFF7BAFC0099411A41F2883019
:101ED000814264D830688007F4D50EE0FFF7AEFC8D
:101EE000009007E0FFF7AAFC0099411A41F2883000
:101EF000814254D830688007F4D42FB1DAF800104A
:101F000021F08051CAF80010A869C0B3DBF80010B6
:101F1000C1F3810102294AD00228484607D0C8F8F7
:101F20006000FFF78BFC00E039E005463AE04746E9
:101F3000C8F86000FFF782FC064604E0FFF77EFC6D
:101F4000801B02282BD820688001F7D4D5E907012F
:101F50000843A96A1C4A490802EB01416A6A41EA3E
:101F60008211084395F82C1040EA01611148001FC6
:101F7000016001203866FFF761FC054605E014E0CA
:101F8000FFF75CFC401B022809D820688001F7D5C8
:101F90000BE000BFFFF752FC401B022802D90320D0
:101FA000BDE8F88F20688001F4D40020F8E7012014
:101FB000F6E70000083802400038024000004742BF
:101FC000800E4742007000400000FFFF10B500681F
:101FD0000B4641680D480140080CD870C1F3042439
:101FE0005C7001F03F049C70C1F34231197052B92A
:101FF00001F057FED870587801F053FE5870987869
:1020000001F04FFE9870002010BD00003FFFFF0060
:1020100010B50B460168896A596001680969C1F306
:102020000E019960006801680E480140C1F3054047
:102030001870C1F306245C7001F07F049C7040248A
:1020400004EA1141D97052B901F02BFE187058788A
:1020500001F027FE5870987801F023FE9870002058
:1020600010BD00007F7F7F0070B5040002D0607F4C
:1020700010B106E0012070BD00202077204600F05E
:1020800049F8022060772168CA20486221685320FD
:102090004862204601F01AFEFF25042618BB20687E
:1020A00081681B4A1140816021688868626810431A
:1020B000D4E904231A43104388602168E06808616A
:1020C00020680169228941EA024101612068C168F2
:1020D00021F08001C16020688068800607D4204616
:1020E00000F000F918B1206845626677C2E7206801
:1020F000016C21F4802101642068016CA269114304
:1021000001642068456201206077002070BD0000F6
:10211000BFFF8FFF00680349884202D102490120B6
:1021200008607047002800403C0E47422DE9F04708
:102130000446007F0B4601281FD04FF0010984F8A8
:102140001C9002206077DAB19878D97840EA01458E
:1021500058781978000240EA413005432168CA20C6
:102160004862216853204862204601F0AFFD0026F6
:10217000FF274FF0040860BB1AE00220BDE8F0879B
:102180005878C10603D500F0EF000A305870D878AF
:1021900001F090FD0204587801F08CFD42EA002223
:1021A000987801F087FD0243187842EA4035D5E778
:1021B0000F480540206845602068C16821F0800113
:1021C000C1602068806880060AD4204600F08AF842
:1021D00030B12068476284F81D8026770120CDE762
:1021E0002068476284F81D9026770020C6E700002B
:1021F0003FFFFF002DE9F0470446007F0D46012810
:1022000011D04FF0010A84F81CA0022060772068EA
:10221000002680684FEA406042B100281ADA287828
:1022200001F03FFD17E00220BDE8F087002800DB49
:10223000EE70287801F03EFD0204687801F03AFD66
:1022400042EA0022A87801F035FD0243E87842EA2C
:1022500000470AE0EE70A878297840EA01476878DC
:10226000E978000240EA014007432168CA20486239
:10227000216853204862204601F028FD4FF0FF08F6
:102280004FF00409E0B9164807402068076020684D
:10229000816821F480218160D5E903010843216828
:1022A0008A68104388602068C16821F08001C1609D
:1022B0002068806880060BD4204600F013F838B1FF
:1022C0002168C1F8248084F81D9026770120ABE7AF
:1022D0002168C1F8248084F81DA026770020A3E798
:1022E0007F7F7F0070B504460068C16821F0A001BF
:1022F000C160FFF7A3FA05464FF47A7607E000BF06
:10230000FFF79CFA401BB04201D9032070BD206842
:10231000C0688006F4D5002070BD70B5040005D0FB
:102320000025A56294F8510010B106E0012070BDAF
:1023300084F85050204600F031F8022084F8510013
:102340002068016821F040010160D4E901010843DF
:10235000D4E903121143084361690843218B01F456
:1023600000710843E1690843216A0843A16A0843F0
:1023700021680860A069042101EA1040616A0843ED
:10238000216848602068C16921F40061C161656508
:10239000012084F85100002070BD000010B586B007
:1023A000044614216846FDF749FF14492068884215
:1023B00021D113480021026842F480420260006883
:1023C00000F4804005900E481038026842F0020286
:1023D0000260006800F0020005904FF46040009039
:1023E0000220CDE9010103200390052004906946F5
:1023F0000448FFF755F906B010BD00000038004052
:1024000040380240000402402DE9F84F044690F89D
:10241000500000260A9F9A4693460D464FF0010849
:1024200001280ED0012084F85000FFF707FA8146FA
:1024300094F85100616801280CD0B1F5827F07D172
:1024400002E00220BDE8F88FA16809B9042801D094
:102450000226BDE055B1BBF1000F07D0BAF1000F65
:1024600004D094F85100012802D004E00126AFE026
:10247000052084F8510000206065C4F838B0A4F845
:102480003EA0A4F83CA02563A4F836A0A4F834A08C
:102490002064606420680168490603D4016841F043
:1024A00040010160E068B0F5006F606804D0E8B3F7
:1024B000E08E01283BD06AE010B1E08E01282ED1D9
:1024C000216835F8020BC860E08E401EE08626E0E9
:1024D000B8F1000F0DD0E08E58B1206881688907EF
:1024E00007D535F8021BC160E08E401EE0864FF034
:1024F0000008E08F58B120688168C90707D0C0681C
:102500002BF8020BE08F401EE0874FF00108781C8B
:1025100005D0FFF793F9A0EB0900B84246D2E08E50
:102520000028D5D1E08F0028D2D136E0FFE721681E
:1025300015F8010B0873E08E401EE08627E000BF0F
:10254000B8F1000F0DD0E08E58B12068816889077E
:1025500007D515F8011B0173E08E401EE0864FF091
:102560000008E08F58B120688168C90707D0C068AB
:102570000BF8010BE08F401EE0874FF00108781C3C
:1025800005D0FFF75BF9A0EB0900B8420ED2E08E50
:102590000028D5D1E08F0028D2D13B46012202216C
:1025A0002046CDF8009001F0DBFB08B103260FE0D8
:1025B0004A463946204601F0A6FB18B101262020E4
:1025C000606505E0A06818B92068C168806800905F
:1025D000012084F85100002084F85000304631E793
:1025E00010B5401EB0F1807F01D3012010BD4FF027
:1025F000E02460610F21601701F042FB0020A06120
:1026000007202061002010BD7047704730B590F85A
:102610003820012A20D0012280F83820022380F8B7
:10262000393003685C6824F070045C6003685C689F
:102630000D682C435C6003689C6824F080049C60F7
:1026400003689C6849680C439C6080F8392000212D
:1026500080F83810084630BD022030BD10B50400A7
:1026600003D094F8390010B107E0012010BD00201C
:1026700084F83800204600F00DF8022084F8390074
:10268000211D206801F068FD012084F83900002038
:1026900010BD000008B502682B482C4982420ED1BB
:1026A000086840F0010008600868002200F001009E
:1026B000009011461920FFF737F9192034E023481C
:1026C000001FB2F1804F0BD0214B9A4210D101680C
:1026D00041F002010160006800F00200009008BDB6
:1026E000016841F001010160006800F00100F5E7B8
:1026F000184B9A4207D1016841F00401016000685B
:1027000000F00400EAE7144B9A4211D1016841F04D
:10271000080101600068002200F0080000901146E6
:102720003220FFF701F93220BDE80840FFF7F1B889
:102730000A488242D3D1086840F4803008600868B3
:1027400000F48030CAE70000000001404438024035
:102750000004004000080040000C00400040014020
:10276000022180F8391001680A6842F001020A600B
:10277000012180F83910002070470168CA6842F0D2
:102780000102CA600068016841F001010160002097
:1027900070470168CA6822F00102CA600068016AD5
:1027A00041F21112114207D1016A9210114203D174
:1027B000016821F0010101600020704770B50446F6
:1027C00090F83800012817D0012584F838500220ED
:1027D00084F839002068826822F0770222F47F4270
:1027E00082600868502837D00DDC202859D005DCDD
:1027F00088B3102841D151E0022070BD302853D059
:1028000040283AD13FE060282ED070280BD0B0F598
:10281000805F03D0B0F5005F2FD110E020688168A1
:1028200021F0070115E0CB68D1E90121206801F012
:10283000E6FC2168886840F0770088601DE0CB687E
:10284000D1E90121206801F0DAFC2068816841F4B7
:102850008041816011E01EE0CA684968206801F08B
:1028600083FD5021206806E0CA684968206801F0AD
:102870008CFD6021206801F0CCFC84F839500020E8
:1028800084F8380070BDCA684968206801F06CFDA2
:1028900040212068EFE700212068ECE71021206844
:1028A000E9E720212068E6E730212068E3E7704768
:1028B00070B50446006801694FF00005C9438907F7
:1028C00015D4C168C943890711D4E91E01610120EB
:1028D0002076206880698007204602D0FFF7E7FF56
:1028E00004E000F0D7F8204600F059F9257620687A
:1028F0000169C943490717D4C168C943490713D4BB
:102900006FF004010161022020762068806910F4D4
:10291000407F204602D0FFF7CAFF04E000F0BAF87B
:10292000204600F03CF9257620680169C943090773
:1029300016D4C168C943090712D46FF008010161B8
:10294000042020762068C0698007204602D0FFF767
:10295000AEFF04E000F09EF8204600F020F9257656
:1029600020680169C943C90617D4C168C943C906AB
:1029700013D46FF010010161082020762068C0692F
:1029800010F4407F204602D0FFF791FF04E000F0F2
:1029900081F8204600F003F9257620680169C943D3
:1029A000C90708D1C168C943C90704D1891E01619B
:1029B000204600F037F920680169C943090609D4A7
:1029C000C168C943090605D46FF080010161204642
:1029D000FFF71AFE20680169C943490609D4C16896
:1029E000C943490605D46FF040010161204600F05B
:1029F00091F920680169C94389060BD4C168C943AC
:102A0000890607D46FF0200101612046BDE87040BF
:102A1000FFF7FBBD70BD000030B587B00446142140
:102A20006846FDF70BFC246800221749022317486B
:102A3000B4F1804F16D0164DAC4211D10C6844F061
:102A400001040C60096801F0010105914021009129
:102A5000CDE901326946CDE9032300BFFEF720FE30
:102A600007B030BD0C6844F001040C60096801F047
:102A70000101059120210091CDE901320121CDE92B
:102A800003216946EAE700003038024000000240B6
:102A900000040040704770B5044690F838000D46B9
:102AA00001280DD0012684F83860022084F839000E
:102AB00042B1042A18D0082A2AD00C2A4DD139E074
:102AC000022070BD206801F0ADFB2068816941F0F3
:102AD000080181612068816921F004018161206819
:102AE00081692A69114311E0206801F0C3FB206865
:102AF000816941F4006181612068816921F480610C
:102B00008161206881692A6941EA0221816124E0AA
:102B1000206801F0DBFB2068C16941F00801C16158
:102B20002068C16921F00401C1612068C1692A6976
:102B3000114311E0206801F0F5FB2068C16941F400
:102B40000061C1612068C16921F48061C1612068B0
:102B5000C1692A6941EA0221C16184F83960002013
:102B600084F8380070BD10B5040003D094F8390023
:102B700010B107E0012010BD002084F83800204685
:102B800000F00CF8022084F83900211D206801F0C3
:102B9000E3FA012084F83900002010BD7047704727
:102BA00010B504460068012201F01EFB07492068A9
:102BB000884203D1416C41F40041416420680168BE
:102BC00041F001010160002010BD00000000014043
:102BD00010B504460068002201F006FB104B41F2DC
:102BE000111120688A10984209D1036A0B4206D15C
:102BF000036A134203D1436C23F400434364206807
:102C0000036A0B4206D1016A114203D1016821F027
:102C100001010160012084F83900002010BD00008E
:102C2000000001402DE9F0410646006834490025C6
:102C3000344C884246D10620FEF76BFE0720FEF793
:102C400068FE0820FEF765FE0920FEF762FE2E4FA3
:102C500001213846FEF7E8FD28B92078012802D185
:102C600001F09CF9257002213846FEF7DDFD30B9F0
:102C70006078012803D1022001F090F965700421E9
:102C80003846FEF7D1FD30B9A078012803D10420E1
:102C900001F084F9A57008213846FEF7C5FD30B96A
:102CA000E078012803D1082001F078F9E570207858
:102CB00040B9607830B9A07820B9E07810B91348ED
:102CC000FFF767FD12493068884216D16069401CE1
:102CD0006061A069401CA06101F0BEF801F0D8FF5E
:102CE000E26961690120914201D365612071226A24
:102CF000A169914201D3A561E071BDE8F0810000B6
:102D000000000140100000200008024000080020E0
:102D1000000C00407047704770B5026804461068A8
:102D2000D168536910F00F0F50D003F0010501F482
:102D3000907635435DD0C20705D0CA0503D5E26B56
:102D400042F00102E263420705D5DA0703D0E26BE5
:102D500042F00202E263820705D5DA0703D0E26B94
:102D600042F00402E263020705D5DA0703D0E26B02
:102D700042F00802E263E26B002A33D0800604D5F9
:102D8000880602D5204601F099FB20684069E16B76
:102D9000C0F38010090700D428B3204601F080FB5F
:102DA0002068416949061AD5416921F04001416115
:102DB000606BA0B11B490165606BFEF7C9FA002882
:102DC00010D0606B016DBDE870400847830610D5D8
:102DD0008B060ED52046BDE8704001F06FBB204643
:102DE000FFF799FF70BD2046FFF795FF0020E063D5
:102DF00070BD030606D50B0604D52046BDE870401D
:102E000001F0F8BC4006F3D54806F1D5D16820465C
:102E100021F04001D160202184F8391000F095F9AB
:102E200070BD00009144000870B5040004D094F80F
:102E30003900002510B106E0012070BD84F838503B
:102E4000204600F023F8242084F839002068C16867
:102E500021F40051C160204601F076FB2068016931
:102E600021F4904101612068416921F02A0141610A
:102E70002068C16841F40051C160E563202084F8F6
:102E8000390084F83A00002070BD000010B586B00B
:102E9000044614216846FDF7D1F917492068884295
:102EA00028D11648016841F400310160006800F43F
:102EB0000030059011481038016841F001010160AF
:102EC0000068694600F0010005900C200090022087
:102ED00001900120029003200390072004900848ED
:102EE000FEF7DEFB002211462620FEF71DFD262000
:102EF000FEF70FFD06B010BD004400404038024010
:102F00000000024090F83A30202B1DD1D1B1CAB157
:102F100090F83830012B17D081628285C28500215C
:102F2000C163222280F83A2080F8381001684A698B
:102F300042F001024A610068C16841F49071C160C9
:102F400000207047012070470220704770B54C493F
:102F50000B2201F11400FDF7E5F9494A49A1A2F15C
:102F6000640002F0ABF9494C2082228A4449484867
:102F7000643900F0CBF8424846A11430FDF775F9EA
:102F8000012580B13E481C300646FDF71BFA462855
:102F900008DC3046FDF716FA002803DB3046FDF763
:102FA00011FA6062257136483DA11430FDF75DF9D4
:102FB000334E143638B110220021F01CFDF7CAF947
:102FC00000F01AFF25712E4836A11430FDF74DF997
:102FD00038B110220021301DFDF7BCF900F066FF6A
:102FE00042E0274831A11430FDF758F902260028A5
:102FF0002AD0234830A11430FDF750F930B32048CF
:1030000030A11430FDF74AF910B31D4830A1143037
:10301000FDF744F9F8B11A4830A11430FDF73EF934
:10302000E0B1174830A11430FDF738F9C8B11448A1
:1030300030A11430FDF732F9C0B1114830A114307D
:10304000FDF72CF9A0B114E066730DE065730BE099
:103050000020607308E040F2E73004E04FF42F7086
:1030600001E040F25230E081257102E0E57100E0BC
:10307000E671BDE870400A2201490548FFF742BFEA
:103080000C01002025730A0D000000001000002034
:1030900068090020434D4454435249540000000045
:1030A000434441004354494D00000000434D444D0A
:1030B0004F44445331380000434D444D4F444C4D30
:1030C00033350000434D444D4F44434F52450000BB
:1030D000434D4446414E484947480000434D44460D
:1030E000414E4C4F57450000434D4446414E4D45DF
:1030F00044490000434D4444554D50434F4E000059
:10310000434D44464143544F5259000090F83930E2
:10311000202B18D1A9B1A2B190F83830012B12D0D0
:1031200001628284C2840021C163212280F8392097
:1031300080F838100068C16841F08001C16000204B
:10314000704701207047022070477047FEE700007B
:1031500010B5144C2046617B406A21B1012909D089
:1031600002291DD115E0FDF7C2FA41EC100B94EDD8
:10317000121B05E0FDF7BBFA41EC100B94ED0E1BA2
:1031800051EC100B53EC112BFDF7EAFA08D8012093
:1031900010BDFDF7ACFA41EC100B94ED101BEFE7FE
:1031A000002010BD10000020012000F09BB900009D
:1031B00000B585B04FF4F060009001200190002030
:1031C0000290039069460248FEF76AFA05B000BD16
:1031D0000004024010B5794C002208212046FEF779
:1031E00028FB002210212046FEF723FB002220218D
:1031F0002046FEF71EFBFFF7DBFF2D20FEF730FA1F
:10320000032000F0E9F8012210212046FEF711FB0F
:103210006B49012002F01AFC002210212046FEF723
:1032200008FB674941F2EC3002F010FC032000F08B
:10323000D3F8012210212046FEF7FBFA6049012055
:1032400002F004FC002210212046FEF7F2FA5C494D
:10325000B42002F0FBFB032000F0BEF80122102195
:103260002046FEF7E6FA5649012002F0EFFB002265
:1032700010212046FEF7DDFA5149B42002F0E6FBAA
:10328000022000F0A9F8012210212046FEF7D1FA11
:103290004B49012002F0DAFB002210212046FEF704
:1032A000C8FA4749782002F0D1FB022000F094F8D8
:1032B000012210212046FEF7BCFA4149012002F00C
:1032C000C5FB002210212046FEF7B3FA3C490A2034
:1032D00002F0BCFB082000F07FF8012210212046FC
:1032E000FEF7A7FA3649012002F0B0FB00221021B8
:1032F0002046FEF79EFA3249782002F0A7FB002014
:1033000000F06AF8012210212046FEF792FA2C49BB
:10331000012002F09BFB002210212046FEF789FAD3
:103320002749782002F092FB0F2000F055F8012287
:1033300010212046FEF77DFA2149012002F086FB8C
:10334000002210212046FEF774FA1D49782002F071
:103350007DFB002000F040F8012210212046FEF7FE
:1033600068FA1749012002F071FB00221021204663
:10337000FEF75FFA1249782002F068FB062000F0A1
:103380002BF8012210212046FEF753FA0C490120A8
:1033900002F05CFB002210212046FEF74AFA0849A1
:1033A000782002F053FB012000F09CF8BDE81040AB
:1033B000034941F2941002F049BB000000040240AE
:1033C000B408002011B1012900D140210844803007
:1033D000C0B200F087B8000070B50446C2071348B9
:1033E0004FF4806100D00122FEF723FA104DA007B0
:1033F0004FF4807101D5012200E000222846FEF73B
:1034000018FA60074FF4007101D5012200E0002294
:103410002846FEF70EFA0748210701D5012200E0F1
:103420000022BDE870408021FEF703BA000402408C
:10343000000002400008024070B50446064D05E059
:1034400060782870207800F05BF8641C20780028F1
:10345000F6D12878287070BD6000002070B5044651
:10346000FFF7A6FE1D4D002220212846FEF7E1F9B8
:103470001B49012002F0EAFA2009FFF7ADFF012203
:1034800010212846FEF7D5F91549012002F0DEFA91
:10349000002210212846FEF7CCF91149022002F043
:1034A000D5FA2046FFF798FF012210212846FEF7A3
:1034B000C0F90B49012002F0C9FA00221021284668
:1034C000FEF7B7F90649022002F0C0FABDE87040E5
:1034D00003494FF4966002F0B9BA000000040240BC
:1034E000B408002010B50446002208210348FEF766
:1034F000A0F92046BDE81040FFF7B0BF000402402D
:1035000010B50446012208210448FEF792F9044848
:1035100004702046BDE81040FFF7A0BF0004024041
:103520006000002010B5514CC6B0207A01280CD1A3
:1035300001224FA14F4802F0ABFC40B100202072A5
:1035400001224BA1002002F0A3FC46B010BD1322C3
:1035500049A14D4802F0C8FC002808D14A488169B9
:10356000C068814204D10220E07101F009FD78E0D9
:10357000454AFA21684602F067FC434AFA21684648
:1035800002F062FC41A16846FCF763FE40A1684678
:10359000FCF7A6FE10220021FCF7DCFE8DF8FC00F3
:1035A0003BA10020FCF79CFE10220021FCF7D2FE7C
:1035B0008DF8FD0036A10020FCF792FE10220021BC
:1035C000FCF7C8FE8DF8FE0031A10020FCF788FE54
:1035D00010220021FCF7BEFE8DF810012CA1002066
:1035E000FCF77EFE10220021FCF7B4FE8DF81201DC
:1035F00027A10020FCF774FE10220021FCF7AAFE90
:103600008DF8110122A10020FCF76AFE1022002192
:10361000FCF7A0FE8DF813011DA10020FCF760FE51
:103620000A220021FCF796FE607319A10020FCF726
:1036300057FE0A220021FCF78DFE606214A10020D3
:10364000FCF74EFE0A220021FCF784FEE0810122F5
:1036500044A91048FEF76AFD01223FA90D48FEF774
:10366000C9FD094802F072FB6AE700001000002063
:10367000303A000080020020303A636F6E6669675E
:103680002E74787400000000B00400202F30000079
:103690002C000000880700207FB500241A48009401
:1036A000019402941749039401604FF44031C0E93A
:1036B0000114846115490462C0E90A140226012537
:1036C000C661C0E9034505634461FDF74AFD08B1E1
:1036D000FDF72BFC07200094CDE9015069460A480C
:1036E000FDF796FC08B1FDF720FC1020CDE900069F
:1036F00069460548FDF78CFC002801D0FDF715FC54
:103700007FBD000000200140E00600200100000F06
:10371000094808B5016841F4800101600068002291
:1037200000F48000009011463820FEF7FDF8BDE857
:1037300008403820FEF7EDB83038024010B5044993
:103740000448FDF70FFC0249491E087010BD000037
:1037500079000020640000202DE9F04786B0142194
:103760006846FCF76BFD50480024016841F00401F5
:103770000160016801F004010591016841F0010157
:103780000160016801F001010591016841F0020149
:1037900001600068DFF8148100F00200059000224B
:1037A00040F23D414046FEF744F8012211034046F5
:1037B000FEF73FF8DFF8F890002280214846FEF738
:1037C00038F8DFF8F0A04FF4407700223946504631
:1037D000FEF72FF8384E0F20CDE900060125694687
:1037E00002954846FDF75CFF1020CDE900066946CA
:1037F00002955046FDF754FF41F239400090CDE963
:103800000154694640460394FDF74AFF0220CDE982
:103810000004694640460294FDF742FF04200090F0
:103820001120CDE90104694640460394FDF738FFB5
:1038300080200090CDE90154694648460394FDF785
:103840002FFF0097CDE90154694650460394FDF7D8
:1038500027FF002211460620FEF766F80620FEF735
:1038600058F8002211460720FEF75EF80720FEF701
:1038700050F8002211460820FEF756F80820FEF7FF
:1038800048F8002211460920FEF74EF80920FEF7FD
:1038900040F8002211460A20FEF746F80A20FEF7FB
:1038A00038F806B0BDE8F087303802400004024026
:1038B00000080240000002400000211010B586B050
:1038C00014216846FCF7BAFC1E4800241C490594E4
:1038D000C0E900147F218160FF21C0E90314446125
:1038E0008461FEF7C1FB08B1FDF71FFB12208DF8C4
:1038F00000008DF801408DF802404FF48030CDE992
:103900000304012269460F48FEF774FC08B1FDF775
:103910000CFB03208DF8140001208DF815002320E6
:103920008DF8160019208DF81700012205A9054809
:10393000FEF7FCFB002801D0FDF7F7FA06B010BD3A
:103940000028004088070020104810B50E4901608B
:103950004FF48271416000218160C1604FF40072B8
:103960000161C0E905123022C0E90721416281628C
:103970000A21C162FEF7D1FC002803D0BDE8104047
:10398000FDF7D3BA10BD000000380040A8070020A2
:1039900010B586B000241748009401940294039453
:1039A00004941349059401604FF47A51C0E901145D
:1039B000FA21C0E903144461FEF750FE08B1FDF797
:1039C000B4FA4FF48050009069460A48FEF7F6FEBC
:1039D00008B1FDF7AAFA049404A906480594FEF775
:1039E00015FE002801D0FDF7A0FA06B010BD0000BA
:1039F000000001400008002010B58EB0002407949C
:103A0000089409940A940B941C2168460C94FCF7C2
:103A100015FC1F484FF0804101605021416010218A
:103A200081604FF47A71C0E90314FEF717FE08B104
:103A3000FDF77BFA4FF48050079007A91448FEF772
:103A4000BDFE08B1FDF771FA1148FFF78CF808B117
:103A5000FDF76BFA0B940BA90D480C94FEF7D6FDFD
:103A600008B1FDF762FA602000904FF46170CDE973
:103A700001040022694606480494FFF70CF808B1D7
:103A8000FDF753FA0248FEF7C7FF0EB010BD000065
:103A90003C08002010B58EB00024079408940994C7
:103AA0000A940B941C2168460C94FCF7C7FB1F4832
:103AB0001D49016050214160102181604FF47A71ED
:103AC000C0E90314FEF7CAFD08B1FDF72EFA4FF462
:103AD0008050079007A91548FEF770FE08B1FDF762
:103AE00024FA1248FFF73FF808B1FDF71EFA0B94CD
:103AF0000BA90E480C94FEF789FD08B1FDF715FAE5
:103B0000602000904FF4FA70CDE90104002269466C
:103B100006480494FEF7BFFF08B1FDF706FA034814
:103B2000FEF77AFF0EB010BD0004004078080020B8
:103B300010B586B0002416480094019402940394B2
:103B400004941249059401605021C0E901144FF614
:103B5000E851C0E90314FEF781FD08B1FDF7E5F96E
:103B60004FF48050009069460948FEF727FE08B1DF
:103B7000FDF7DBF9049404A905480594FEF746FD1A
:103B8000002801D0FDF7D1F906B010BD00080040B3
:103B9000B408002010B586B00024174800940194A2
:103BA0000294039404941349059401604FF47A51EC
:103BB000C0E9011441F28831C0E90314FEF74EFD5B
:103BC00008B1FDF7B2F94FF48050009069460A48F9
:103BD000FEF7F4FD08B1FDF7A8F9049404A906481E
:103BE0000594FEF713FD002801D0FDF79EF906B0FD
:103BF00010BD0000000C0040F00800201FB500219F
:103C00000F480091019102910C4A039102604FF418
:103C10007A52C0E90121C1600161FEF71FFD08B1C0
:103C2000FDF783F94FF48050009069460448FEF791
:103C3000C5FD002801D0FDF778F91FBD0040014007
:103C40002C0900200C4810B50A4901604FF4E131FD
:103C50004160002181600C22C160C0E904128161D1
:103C6000C161FFF7E1F8002803D0BDE81040FDF77F
:103C70005CB910BD0044004068090020FEE77047B1
:103C80000907090E002806DA00F00F0000F1E02015
:103C900080F8141D704700F1E02080F80014704790
:103CA0007047010901EB810100F00F0000EB4100BA
:103CB000C0B27047002102E00A38C0B2491C0A288D
:103CC000FAD2090740EA11607047000070B5044657
:103CD0000068C168490614D44FF0FF31C160FDF798
:103CE000ADFD05464FF47A7607E000BFFDF7A6FD6F
:103CF000401BB04201D9032070BD2068C068400657
:103D0000F4D5002070BD38B50B4600920446002261
:103D1000802100F025F8002804D0606D40F02000DC
:103D20006065032038BD000010B50446FDF786FD30
:103D300001460248C0E9011410BD00000000002047
:103D400010B5FDF77BFD05494A688968801A8842ED
:103D500001D2012010BD002010BD00000000002095
:103D60002DE9F0411D4617460E460446DDF8188041
:103D700035E0681C33D02DB1FDF760FDA0EB0800E5
:103D8000A8422CD32068416821F0E00141606068BE
:103D9000B0F5827F0BD1A068B0F5004F02D0B0F52E
:103DA000806F04D12068016821F040010160A06AA1
:103DB000B0F5005F0AD1206801684DF6FF7211402E
:103DC00001602068016841F400510160012084F81D
:103DD0005100002084F850000320BDE8F0812068E5
:103DE000806836EA000004D00020B842C1D100202B
:103DF000F3E70120F9E77047C1B208B54A1E982AD7
:103E000000D900218DF80310C0F307214B1E0122B9
:103E1000112B02D88DF8011001E08DF80120C0F3BC
:103E200007414B1E302B02D88DF8021001E08DF8AF
:103E30000220C0F30360411E062902D88DF800005D
:103E400001E08DF80020012269460248FEF76EF974
:103E500008BD000088070020114810B5417BC089CB
:103E600040F2523340F2E7344FF42F7241B102294D
:103E700001D0012907D10B499042096808D101E01E
:103E80000949F9E74A6310BD4B6310BD4C6310BD8F
:103E9000A0F540705238F7D09528F7D0F2E700002F
:103EA00010000020780800203C08002000B5C1B2B6
:103EB0004B1E002285B0582B02D88DF8021001E06D
:103EC0008DF80220C0F307214B1E582B02D88DF825
:103ED000011001E08DF80120C0F30740411E2229A6
:103EE00000D912208DF80000012269460248FEF731
:103EF00081F905B000BD00008807002070B5254C91
:103F000004F13005607B20B1012816D002282AD1A7
:103F100034E02049022230311F48FDF799F96868E2
:103F200000F046FA51EC100BFCF7EEFBFCF7DFFB60
:103F300041EC100B84ED120B12E0164902223031D5
:103F40001548FDF785F9286800F07EFA51EC100B52
:103F5000FCF7DAFBFCF7CBFB41EC100B84ED0E0B0E
:103F6000FFF7F6F86071002000F0DCFE012000F0A1
:103F7000D9FE00F08DFE0020207170BDFCF7F6FE2A
:103F800010EE100AFCF7D9FB41EC100B84ED100B7E
:103F9000E6E7000010000020E006002010B5012830
:103FA0000DD002280FD0042810D0082810D10120ED
:103FB000FCF7C6FD0120BDE8104000F0B3BEFCF7E1
:103FC00031FE0020F7E7FCF719FEF3E70020EFE7EA
:103FD00010BD000070B501251A4C012810D0022830
:103FE00019D0042822D0082809D1E078002806D169
:103FF0001548FEF7C2FB0920FDF780FCE57070BD97
:1040000020780028FBD11048FEF7B7FB0620FDF70B
:1040100075FC257070BD60780028FBD10A48FEF75A
:10402000ACFB0720FDF76AFC657070BDA078002826
:10403000FBD10548FEF7A1FB0820FDF75FFCA5704A
:1040400070BD00001000002000080020FDF7FCBB40
:1040500030B597B030216846FCF7F0F814210CA871
:10406000FCF7ECF8142111A8FCF7E8F81D4800252E
:10407000016841F080510160006800F080501690A6
:104080001948016821F4404141F400410160006891
:10409000102100F4404016900A2000900120CDE944
:1040A000030105A9022481E831000820089050206E
:1040B000CDE9090404200B906846FDF7F9FD0CA931
:1040C0000F2081E83100E002CDE90F0502210CA8A4
:1040D000FDF704FD20021490119411A8FDF756FC81
:1040E00017B030BD403802400070004010480168F1
:1040F00041F4700101600F48016841F00101016065
:104100000C4A00210832116002680B4B1A40026011
:10411000031D0A4A1A60026822F4802202600548E0
:104120000C30016002495806803908607047000071
:1041300088ED00E000380240FFFFF6FE103000245A
:104140000148FEF7B5BB0000000800200148FEF75B
:10415000AFBB0000F0080020F0B502681B4B1C4C00
:104160009F031C4D1C4E984207D0B84205D0A04278
:1041700003D0A84201D0B04204D122F0700C4A68AA
:1041800042EA0C02984210D0B8420ED0A0420CD0A5
:10419000A8420AD0B04208D0104CA04205D0104C22
:1041A000A04202D00F4CA04203D122F44074CA684E
:1041B000224302608A68C2620A688262984201D120
:1041C0000969016301214161F0BD00000000014067
:1041D0000004004000080040000C00400040014086
:1041E000004401400048014010B50123046A8B409F
:1041F0009C430462036A8A401343036210BD10B5F6
:10420000846842EA032224F47F440A432243826002
:1042100010BD826822F070020A4342F007018160FB
:104220007047000030B5026A22F001020262026AA1
:104230004368846924F073050C682C4322F002055E
:104240008A682A430A4DA8420BD122F00805CA68A1
:1042500023F440732A434D6922F004021D438B6905
:104260002B434360846149684163026230BD0000B2
:104270000000014030B5026A22F010020262026AB8
:10428000436884690D6824F4E64444EA05248D6893
:1042900022F0200242EA05120B4DA8420ED1CD6851
:1042A00022F0800242EA05124D6923F4406343EA9A
:1042B00085038D6922F0400243EA850343608461EF
:1042C00049688163026230BD0000014030B5026A76
:1042D00022F480720262036A4268C46923F40073A4
:1042E00024F073050C682C438D6843EA05230C4DBC
:1042F000A8420ED1CD6823F4006343EA05234D693B
:1043000022F4405242EA05128D6923F4806342EAA6
:1043100005124260C4614968C163036230BD000098
:104320000000014030B5026A22F480520262046A41
:104330004268C3690D6823F4E64343EA05238D68A8
:1043400024F4005444EA0534064DA84204D14D69D2
:1043500022F4804242EA85124260C36149680164E6
:10436000046230BD0000014010B5036A046A24F005
:1043700001040462846924F0F00444EA021423F086
:104380000A020A438461026210BD10B5036A23F079
:10439000100303628369046A23F4704343EA023220
:1043A00024F0A00343EA01118261016210BD000004
:1043B00010B52DED028BFCF79AF99FED171B53EC0E
:1043C000112BFCF7B3F89FED161B53EC112BFCF7E8
:1043D0001FF99FED151B53EC112BFCF7A1F89FED76
:1043E000141B53EC112BFCF713F99FED131B53EC2B
:1043F000112BFBF7F4FF41EC180BFCF785F9FF28B4
:1044000004D39FED0F0BBDEC028B10BDB0EE480A3C
:10441000F0EE680AF7E700006666666666660A40C0
:104420000000000000FEAF4052B81E85EB51E83F8F
:104430007B14AE47E17A643F000000000000394081
:10444000000000000000000010B5FCF750F99FEDDF
:104450000A1B53EC112BFCF769F89FED091B53EC79
:10446000112BFCF7D5F89FED081B53EC112BFCF733
:10447000CFF841EC100B10BD6666666666660A40B2
:104480000000000000FEAF407B14AE47E17A843F9D
:1044900010B5806B0021C185C184FEF73CFC10BDC6
:1044A0000168CA6822F49072CA6001684A6922F001
:1044B00001024A61202180F83A10704710B590F847
:1044C0003A10222901D0022010BD8168B1F5805F29
:1044D00011D00169002901681FD0496801F07F03EC
:1044E000816A4A1C82620B70C18D491E0904090C45
:1044F000C18518D026E00269816A002A02685268E4
:1045000005D0D2B20A80816A491C8162ECE7C2F30D
:1045100008020A80816A891CF7E74A68816A4B1C95
:1045200083620A70E0E70168CA6822F49072CA6088
:1045300001684A6922F001024A61202180F83A109C
:10454000FEF704FD002010BD2DE9F041044600688F
:10455000016921F44052E168114301612168C86892
:1045600049F20C6290432369A268E5691A436369C2
:104570002B431A430243CA602168486920F4407201
:10458000A06910434861E1696425B1F5004F97487F
:10459000974A21684FF032083FD0914201D08142C2
:1045A0007CD1FDF743FB00EBC00101EB001061681B
:1045B0008900B0FBF1F6FDF739FB00EBC00101EB20
:1045C000001061688900B0FBF1F0B0FBF5F06FF00E
:1045D0001801484306EB800108EB0110B0FBF5F031
:1045E00000F0F006FDF722FB00EBC00101EB00102C
:1045F00061688900B0FBF1F0B0FBF5F006EB001646
:10460000FDF714FB00EBC00101EB001061688900AD
:10461000B0FBF1F7FDF70AFBD2E0914201D08142F5
:104620003DD1FDF703FB00EBC00101EB0010616819
:104630004900B0FBF1F0B0FBF5F00601FDF7F6FA2A
:1046400000EBC00101EB001061684900B0FBF1F71D
:10465000FDF7ECFA00EBC00101EB001061684900C6
:10466000B0FBF1F0B0FBF5F06FF01801484307EB39
:10467000800108EBC100B0FBF5F000F0F80006EB9C
:104680004006FDF7D3FA00EBC00101EB00106168B2
:104690004900B0FBF1F7FDF7C9FA3CE055E0FDF742
:1046A000B5FA00EBC00101EB001061684900B0FBF6
:1046B000F1F0B0FBF5F00601FDF7A8FA00EBC00140
:1046C00001EB001061684900B0FBF1F7FDF79EFABD
:1046D00000EBC00101EB001061684900B0FBF1F094
:1046E000B0FBF5F06FF01801484307EB800108EBD1
:1046F000C100B0FBF5F000F0F80006EB4006FDF756
:1047000085FA00EBC00101EB001061684900B0FBC5
:10471000F1F7FDF77BFA00EBC00101EB00106168D7
:104720004900B0FBF1F0B0FBF5F06FF01801484321
:1047300007EB800108EBC100B0FBF5F000F00700CB
:10474000216830448860BDE8F081FDF75FFA00EB36
:10475000C00101EB001061688900B0FBF1F6FDF7C4
:1047600055FA00EBC00101EB001061688900B0FB55
:10477000F1F0B0FBF5F06FF01801484306EB800153
:1047800008EB0110B0FBF5F000F0F006FDF73EFA83
:1047900000EBC00101EB001061688900B0FBF1F093
:1047A000B0FBF5F006EB0016FDF730FA00EBC001A8
:1047B00001EB001061688900B0FBF1F7FDF726FA04
:1047C00000EBC00101EB001061688900B0FBF1F063
:1047D000B0FBF5F06FF01801484307EB800108EBE0
:1047E0000110B0FBF5F000F00F00A9E70014014044
:1047F0000010014090F83910212901D002207047A3
:104800008168B1F5805F016A0BD04A1C02620268C0
:1048100009785160C18C491E0904090CC1840ED06D
:1048200017E009880268C1F3080151600169002995
:10483000016A02D0491C0162ECE7891CFBE70168B0
:10484000CA6822F08002CA600068C16841F0400175
:10485000C1600020704700000148FEF75DBA00000B
:10486000680900202DE9F84310B10120BDE8F88364
:10487000444D287880077CD4DFF80C814FF4807198
:10488000D8F8000001620A24FF2002F0A1FA641E99
:1048900014F0FF04F8D100263146304602F083F9C7
:1048A00001285CD14FF47A70FFF73EFA4FF4D571CE
:1048B000082002F078F9012808D00021A92002F090
:1048C00072F9012836D80226A92435E06F46FF2068
:1048D00002F07EFA3855641CE4B2042CF7D39DF83C
:1048E000020001283BD19DF80300AA2837D14407D4
:1048F000FFF726FA28B12146A92002F054F9002832
:10490000F6D1FFF71DFA50B300213A2002F04BF91F
:1049100028BB0024FF2002F05BFA3855641CE4B287
:10492000042CF7D39DF80000400601D50C2616E0B4
:10493000042614E001263446FFF702FA28B10021CC
:10494000204602F030F90028F6D1FFF7F9F928B136
:104950004FF40071102002F026F900B100266E70AD
:1049600001F07CF84EB1D8F80000102101622878DF
:1049700000E004E020F0010000E001202870287829
:1049800074E7000000000020A80700207FB514464F
:10499000030002D0042004B070BD6C4E3078C00714
:1049A00001D00320F7E7012561B101290DD0674847
:1049B0000329407848D004297ED0042501F04EF820
:1049C0002846E8E702F032F9BBE00021092002F0B6
:1049D000EAF80028F2D11021684602F083F8002896
:1049E000ECD09DF800100120B0EB911F0CD19DF888
:1049F00009109DF8082001EB02229DF8071000EB3A
:104A00000140104480021DE09DF805009DF80A1049
:104A100000F00F0000EBD1109DF809109DF8072061
:104A200001F0030100EB41019DF80800800900EB53
:104A300082009DF8062002F0030200EB8220401C59
:104A4000C91F3EE020607EE040074FF000011AD50C
:104A50008D2002F0A8F80028B0D1FF2002F0B8F9AC
:104A60001021684602F03EF80028A7D03025FF202C
:104A700002F0AEF96D1E15F0FF05F8D19DF80A00A1
:104A8000010910201DE0092002F08DF8002895D1C1
:104A90001021684602F026F800288FD07078800731
:104AA00011D59DF80A009DF80B108006400E00EB12
:104AB000D1109DF80D1000E014E0FF2202EB9111DF
:104AC000401C8840BEE79DF80B008107C90E01EB32
:104AD00050109DF80A10401CC1F38401491C10FBC2
:104AE00001F0AFE710F0060FBFD06A460B21184661
:104AF000FFF74CFF0028AFD19DF80000800904D1DA
:104B00009DF80A0040067FF559AFD4E9001470788B
:104B1000000701D449026402202002F044F8002872
:104B20009AD12146212002F03EF8002894D100219C
:104B3000262002F038F800288ED147F2305002F0DB
:104B400033F9002891D0002538E70000000000204C
:104B500070B51C460D4630B92CB11C480178C90708
:104B600003D0032070BD042070BD4078000700D43E
:104B700052024FF40076012C114604D0122002F0AC
:104B800012F860B118E0112002F00DF8C0B93146FA
:104B9000284601F0A7FF98B100F060FF14E031460D
:104BA000284601F09FFF18B1641E05F50075F6D187
:104BB00000210C2001F0F7FF00F050FF14B903E0D2
:104BC00000F04CFF012070BD002070BD00000020EF
:104BD00008B10120704701480078704700000020AC
:104BE00070B51C4615460E4630B92CB122490878DE
:104BF000C00703D0032070BD042070BD08784007B3
:104C000001D5022070BD4878010700D45502012C5F
:104C10000CD010F0060F03D01946972001F0C3FF07
:104C20002946192001F0BFFF68B11AE02946182073
:104C300001F0B9FFD0B9FE21304602F0D9F8A8B191
:104C400000F00CFF15E0FC21304602F0D1F818B15D
:104C5000641E06F50076F6D1FD21002002F0C8F8AA
:104C600020B100F0FBFE24B1012070BD00F0F6FE83
:104C7000FAE7002070BD000000000020FFF7F2BD41
:104C8000FFF784BEFFF764BFFFF7A2BFFFF7A8BF1F
:104C900070B5214C012520466179407A0026012912
:104CA00004D000291ED1217B59B32DE0E17A11B93E
:104CB000E5722673A571617B31B1022901D001290A
:104CC00010D1A07A78B113E020B900211348FDF784
:104CD00067FF6572A07A012804D100211048FDF712
:104CE00077FFA67270BD00210D48FDF759FFA57230
:104CF000607A0128F6D100210848FDF769FF667245
:104D000070BD2573E672A5710128E3D10021034827
:104D1000FDF75EFF6672DDE7100000203C08002012
:104D20007808002070B50546FEF73EFA424C15B3F0
:104D3000012D7FD100210846FEF744FB3F4A40A1E8
:104D4000A2F5967000F0BAFA3E48FEF775FB012115
:104D50000020FEF737FBE089B0F52F7F56D0A0F595
:104D60004071523904D0A0F54071E73952D056E075
:104D700035A1626A50E000210846FEF723FB607B04
:104D800050B994ED120B51EC100BFBF7BDFC024631
:104D900031A12C4800F092FA607B01280AD194EDF1
:104DA0000E0B51EC100BFBF7AFFC02462DA1254872
:104DB00000F084FA607B02280AD194ED100B51ECCC
:104DC000100BFBF7A1FC024629A11E4800F076FA61
:104DD0006079012803D129A11A48FBF73AFA19484A
:104DE000FEF72AFB174A16A1144800F067FA0121C2
:104DF0000020FEF7E7FA114A11A11032114800F025
:104E00005DFABDE870400F48FEF716BB1CA1626A50
:104E100002E00FE0626A1EA10A4800F04FFA09485A
:104E2000FEF70AFBBDE87040064A05A102F59E7038
:104E300000F044BA70BD00001000002060020020A5
:104E400025730000340100204B7279743A25647C8C
:104E5000547279623A310000434F52453A2025643A
:104E6000000000004C4D33353A202564000000005E
:104E7000445331383A202564000000007C4F4E0036
:104E80004B7279743A25647C547279623A3000002E
:104E90004B7279743A25647C547279623A3200001C
:104EA000FEE7000010B5FEF795F9124C0520E06111
:104EB0003C202062FFF722F80520FCF7D1FB0EA171
:104EC000114800F0FBF9E38910A11548626A00F06F
:104ED000F5F90020FFF726FF0120FFF723FFFCF77D
:104EE00065F80F490A22BDE8104028390D48FEF741
:104EF00009B8000010000020434F52453A20545298
:104F000057412E2E2E00000060020020545F6B726D
:104F100079743A2025647C547279623A20256400C1
:104F2000340100206809002010B5FCF795FCFFF75C
:104F30008FF8FEF711FCFEF7EBFBFEF7BFFCFEF768
:104F40005BFDFEF7A7FDFEF723FDFEF7A5FBFEF7D1
:104F5000EFFDFEF71FFEFEF775FEFEF7F5FCFEF710
:104F6000EDFBFEF74BFE0448FDF7FAFBBDE81040F1
:104F70000248FDF702BC0000B4080020F008002041
:104F800030B58FB0012209A94448FDF741F801224C
:104F90000EA94248FDF71AF8414C207A012845D164
:104FA000E0790025012802D0022841D03DE001220D
:104FB0003CA13D4800F06CFF80BB0B223BA13F4869
:104FC00000F092FF30BB3E4AFA213E4800F05EF905
:104FD0003A493C4801F08EF8002800DA25729DF825
:104FE0003B000DF1140CE389617B626A8CE80F00D1
:104FF0009DF826000DF1040C9DF839309DF83A20FB
:105000009DF838108CE80F009DF8250000909DF861
:10501000243035E0294800F099FE01E0FFE72572D1
:10502000012220A1002000F033FFE5710FB030BD58
:1050300001221CA11C4800F02BFF0028EFD10B22FD
:105040001AA11E4800F050FF0028E3D11C4AFA21A3
:105050001C4800F01BF919491A4801F04BF80028C8
:1050600000DA25724FF42F70192105950695CDE9C8
:1050700007100120CDE90150039012230095049000
:1050800011A2FA210F4800F001F90C490D4801F076
:1050900031F80028BEDA2572BCE70000880700203E
:1050A00010000020303A000080020020303A636F88
:1050B0006E6669672E74787400000000B0040020EA
:1050C000846F000866010020252E32782C252E32B0
:1050D000782C252E32782C252E31782C252E3278DE
:1050E0002C252E32782C252E32782C25752C2575E2
:1050F0002C25750030B5A5B001221FA94548FCF745
:1051000087FF012224A94348FCF760FF424C002599
:10511000207A01280BD1012240A1414800F0B8FEBD
:1051200040B1257201223DA1002000F0B1FEA57121
:1051300025B030BD33223BA13D4800F0D5FE00280C
:1051400063D19DF87C000DF1080C9DF87E209DF840
:105150007D10636A8CE80F009DF893109DF8910014
:10516000CDE900019DF8923032A2FA21384800F0D2
:105170008DF8607B20B101280BD0022815D124E0E6
:1051800094ED120B51EC100BFBF7BEFA034631A263
:1051900007E094ED0E0B51EC100BFBF7B5FA03464C
:1051A0002FA2642106A800F071F82948FBF76FF8D8
:1051B000C0F1FA0206A92648FBF77EF8E07A01283A
:1051C0000CD0207B01280BD00FE094ED100B51EC9C
:1051D000100BFBF799FA034624A2E2E727A200E0AE
:1051E00028A2642106A800F051F81948FBF74FF8EF
:1051F000C0F1FA0206A91648FBF75EF80C491448FC
:1052000000F078FF002800DA2572094800F09EFDC2
:1052100088E700008807002010000020303A0000D6
:1052200080020020303A6C6F672E747874000000A2
:10523000B004002025782E25782E25782025783A70
:1052400025783A25782054435249543D257520004D
:1052500066010020543D257520434F524500000053
:10526000543D2575204C4D3335000000543D2575C7
:10527000204453313842323000000000204F4E0AA3
:105280000D000000204F46460A0D00000FB41CB56B
:105290000246002007AC00290BD0491ECDE90021B1
:1052A000054B6A462146069800F030F8009A002126
:1052B00011701CBC5DF814FB6F5700080FB4084B4D
:1052C00010B504A902AA039800F020F8044602A928
:1052D000002000F057FA204610BC5DF814FB0000D7
:1052E0008557000800487047A400002002E008C865
:1052F000121F08C1002AFAD170477047002001E050
:1053000001C1121F002AFBD1704700002DE9FF4F99
:105310008DB00F460546002606E025280BD0DDE9B6
:105320000F1290476D1C761C28780028F5D111B01B
:105330003046BDE8F08F0024A246A1460122EC4988
:1053400000E0044315F8013F203B02FA03F0084255
:10535000F7D128782A2810D06FF02F022878A0F1F2
:105360003001092914D80AEB8A0102EB410144F00B
:10537000020400EB010A6D1CF0E701CF5FEA000AAE
:1053800003D544F40054CAF1000A44F002046D1C31
:1053900028782E2817D115F8010F44F004042A2884
:1053A0000ED06FF02F022878A0F1300109290AD819
:1053B00009EB890102EB410100EB01096D1CF2E7E9
:1053C00057F8049B6D1C28786C280FD006DC4C28FD
:1053D00017D068280DD06A2814D104E0742810D0A2
:1053E0007A280FD10DE044F400140AE044F480144C
:1053F00001E044F440146978814202D104F580143C
:105400006D1C6D1C2A786E2A1FD00CDC632A31D0EB
:1054100004DC002A8BD0582A11D1A3E0642A68D07A
:10542000692A0CD165E0732A2ED004DC6F2A73D070
:10543000702A04D19BE0752A6FD0782A6ED010466E
:10544000DDE90F129047761C50E1C4F302500228A8
:1054500006D0032809D0042801CF09D0066045E111
:1054600001CFF117C0E9006140E101CF06803DE1C5
:1054700006703BE117F8040B8DF8000000208DF852
:105480000100EB46012003E057F804BB4FF0FF306A
:1054900061074FF0000102D40DE008F101018846D8
:1054A00049450FDA8045F8DB1BF808100029F4D1D4
:1054B00008E008F1010188468142FADB1BF8081078
:1054C0000029F6D1DDE90F23AAEB08008146214629
:1054D00000F036F9304400EB080604E0DDE90F1275
:1054E0001BF8010B9047B8F10108F7D22146484656
:1054F000F7E00A21C4F302534FF0000B0891022B8E
:1055000004D001CFC117032B09D00AE0FF1D27F0FB
:105510000707F7E8020108E032E01FE020E000B2F0
:10552000C117042B01D140B2C117031E71F1000352
:1055300007DA4FF0000CD0EB0C006CEB01012D23CF
:1055400002E0230504D52B238DF82430012303E04A
:10555000E30701D02023F7E7984658E00A2110E03E
:1055600010210EE010204FF0000B08900CE01021ED
:105570004FF0000B44F004044FF00809089103E0D9
:1055800008214FF0000B0891C4F30253022B04D002
:1055900001CF0021032B06D006E0FF1D27F00707EF
:1055A000F7E8020103E080B2042B00D1C0B24FF053
:1055B000000823072BD5702A07D0DDF820C08CF017
:1055C000100C5CEA0B0C05D00EE040238DF8243063
:1055D000012308E050EA010306D030238DF824307F
:1055E0008DF8252002239846DDF820C08CF0080CA9
:1055F0005CEA0B0C0BD150EA010301D1630706D51D
:1056000030238DF824304FF00108A9F10109582A00
:1056100004D038A20B9208AA0A920BE03AA2F9E74A
:105620005B46089AFAF7D2FD0B9B9B5C0A9A521EC6
:105630000A92137050EA0102F2D10A98ADEB000011
:1056400000F1200B600702D524F4803401E04FF014
:105650000109D94502DDA9EB0B0000E0002000EBB9
:105660000B0141440890AAEB010AE00306D4DDE9EE
:105670000F232146504600F063F806444FF000091E
:1056800008E009A911F80900DDE90F12904709F1B6
:105690000109761CC145F4DBE0030CD5DDE90F23DD
:1056A0002146504600F04CF8064404E0DDE90F12B4
:1056B00030209047761C0899481E08900029F5DC98
:1056C00008E00A980A990078491C0A91DDE90F124E
:1056D0009047761CBBF10001ABF1010BF1DC2146D8
:1056E0005046DDE90F2300F019F806446D1C1BE657
:1056F00009280100303132333435363738396162A8
:10570000636465660000000030313233343536376B
:105710003839414243444546000000002DE9F0413C
:10572000044600251E461746880404D405E0394681
:105730002020B0476D1C641EF9D52846BDE8F081D5
:105740002DE9F041044600251E469046C80301D5C8
:10575000302700E02027880404D505E0414638467C
:10576000B0476D1C641EF9D52846BDE8F0814A6833
:10577000002A06D00A68531C0B6010704868401E4F
:10578000486070470A68531C0B6010707047000037
:1057900010B504460020E070401EE062204601F093
:1057A000DAF808B1042010BD04F22E2001F0AEF8A2
:1057B000A0F52A41553901D0032010BD94F83000DE
:1057C000E92805D0EB2814D194F83200902810D1A4
:1057D00004F1660001F08FF80749B1EB002F06D005
:1057E00004F1820001F087F80449884201D10020C9
:1057F00010BD022010BD0000004641544641543304
:10580000F0B50022144D134605EB021426685EB174
:105810000768BE4209D166688768BE4205D1A468A0
:105820004669B44204D000E00123521C022AEBD3A3
:10583000022A01D069B904E04BB9022907D012202D
:10584000F0BD05EB02108089B0F5807F01D000200B
:10585000F0BD1020F0BD0000A809002030B50021E7
:10586000054B0C4603EB01121568854200D114600C
:10587000491C0229F6D330BDA80900200268490A54
:10588000C06A5289B1FBF2F1001D04C81AB19142FD
:1058900003D3891AF8E7002070470068084470476E
:1058A0004269891E921E8A4201D800207047826A8E
:1058B000408901FB002070472DE9F04105680F0089
:1058C000804606D000F044FF022809D20120BDE83E
:1058D000F081EE6816B16869B04207D8012605E08C
:1058E000411CF4D069698142F1D83E46344668696A
:1058F000641CA04202D80224022E0AD3214640464C
:1059000000F026FF38B10128E1D0411CDFD0B442BD
:10591000EDD10020DBE74FF0FF3632462146284626
:1059200001F032F830B957B122463946284601F025
:105930002BF820B101280FD001242046C7E7EC60E6
:10594000D5E90401891E884201D8401E28612879C2
:1059500040F001002871F0E73446EEE72DE9F04110
:105960000E4624300D6804460B22202100F0ECFF87
:105970000020014608272A5C401C202A12D92F2A21
:105980000BD05C2A09D02E2A01D0B94214D30B2F98
:1059900022D02E2A20D10CE0401C2B5C2F2BFBD0D8
:1059A0005C2BF9D028443060B1B12078E5281FD0B5
:1059B00020E008210B27DEE7802A03D3114B1A448D
:1059C00012F8802C10A300E05B1C93F800C0BCF11F
:1059D000000F04D09445F7D10620BDE8F081A2F174
:1059E0006103192B01D8203AD2B26254491CC2E794
:1059F00005202070202A01D8042000E00020E07259
:105A00000020EAE7606E0008222A2B2C3A3B3C3D3E
:105A10003E3F5B5D7C7F0000401E022812D20A4997
:105A200001EB00118889B0F5807F05D008B1401ED8
:105A300080B2888110B103E00020FAE700200860FE
:105A40000020704702207047A80900200B68002240
:105A50005A6209684A6A8242FCD9704710B501222D
:105A600011030448FBF7E5FEBDE81040FF2001F0FC
:105A7000AFB90000000402402DE9F04104460021C6
:105A8000056800F0D8F8002826D12846E16900F022
:105A900062FF02001FD1206A017899B1C17A01F03A
:105AA0003F01A171C17A09070FD404F124010B262B
:105AB00010F8013B11F8017BDB1B761E04D0002B94
:105AC000F6D002E0042206E02BB10021204600F0CF
:105AD00005F80200D9D01046BDE8F0812DE9F04765
